{
  "_format": "hh-sol-artifact-1",
  "contractName": "Seiyaj",
  "sourceName": "contracts/Sei.sol",
  "abi": [
    {
      "inputs": [],
      "stateMutability": "nonpayable",
      "type": "constructor"
    },
    {
      "inputs": [
        {
          "internalType": "uint256",
          "name": "increasedSupply",
          "type": "uint256"
        },
        {
          "internalType": "uint256",
          "name": "cap",
          "type": "uint256"
        }
      ],
      "name": "ERC20ExceededCap",
      "type": "error"
    },
    {
      "inputs": [
        {
          "internalType": "address",
          "name": "spender",
          "type": "address"
        },
        {
          "internalType": "uint256",
          "name": "allowance",
          "type": "uint256"
        },
        {
          "internalType": "uint256",
          "name": "needed",
          "type": "uint256"
        }
      ],
      "name": "ERC20InsufficientAllowance",
      "type": "error"
    },
    {
      "inputs": [
        {
          "internalType": "address",
          "name": "sender",
          "type": "address"
        },
        {
          "internalType": "uint256",
          "name": "balance",
          "type": "uint256"
        },
        {
          "internalType": "uint256",
          "name": "needed",
          "type": "uint256"
        }
      ],
      "name": "ERC20InsufficientBalance",
      "type": "error"
    },
    {
      "inputs": [
        {
          "internalType": "address",
          "name": "approver",
          "type": "address"
        }
      ],
      "name": "ERC20InvalidApprover",
      "type": "error"
    },
    {
      "inputs": [
        {
          "internalType": "uint256",
          "name": "cap",
          "type": "uint256"
        }
      ],
      "name": "ERC20InvalidCap",
      "type": "error"
    },
    {
      "inputs": [
        {
          "internalType": "address",
          "name": "receiver",
          "type": "address"
        }
      ],
      "name": "ERC20InvalidReceiver",
      "type": "error"
    },
    {
      "inputs": [
        {
          "internalType": "address",
          "name": "sender",
          "type": "address"
        }
      ],
      "name": "ERC20InvalidSender",
      "type": "error"
    },
    {
      "inputs": [
        {
          "internalType": "address",
          "name": "spender",
          "type": "address"
        }
      ],
      "name": "ERC20InvalidSpender",
      "type": "error"
    },
    {
      "anonymous": false,
      "inputs": [
        {
          "indexed": true,
          "internalType": "address",
          "name": "owner",
          "type": "address"
        },
        {
          "indexed": true,
          "internalType": "address",
          "name": "spender",
          "type": "address"
        },
        {
          "indexed": false,
          "internalType": "uint256",
          "name": "value",
          "type": "uint256"
        }
      ],
      "name": "Approval",
      "type": "event"
    },
    {
      "anonymous": false,
      "inputs": [
        {
          "indexed": true,
          "internalType": "address",
          "name": "user",
          "type": "address"
        },
        {
          "indexed": false,
          "internalType": "uint256",
          "name": "amount",
          "type": "uint256"
        }
      ],
      "name": "Faucet",
      "type": "event"
    },
    {
      "anonymous": false,
      "inputs": [
        {
          "indexed": true,
          "internalType": "address",
          "name": "from",
          "type": "address"
        },
        {
          "indexed": true,
          "internalType": "address",
          "name": "to",
          "type": "address"
        },
        {
          "indexed": false,
          "internalType": "uint256",
          "name": "value",
          "type": "uint256"
        }
      ],
      "name": "Transfer",
      "type": "event"
    },
    {
      "anonymous": false,
      "inputs": [
        {
          "indexed": true,
          "internalType": "address",
          "name": "user",
          "type": "address"
        },
        {
          "indexed": false,
          "internalType": "uint256",
          "name": "amount",
          "type": "uint256"
        }
      ],
      "name": "WhitelistSet",
      "type": "event"
    },
    {
      "inputs": [],
      "name": "admin",
      "outputs": [
        {
          "internalType": "address",
          "name": "",
          "type": "address"
        }
      ],
      "stateMutability": "view",
      "type": "function"
    },
    {
      "inputs": [
        {
          "internalType": "address",
          "name": "owner",
          "type": "address"
        },
        {
          "internalType": "address",
          "name": "spender",
          "type": "address"
        }
      ],
      "name": "allowance",
      "outputs": [
        {
          "internalType": "uint256",
          "name": "",
          "type": "uint256"
        }
      ],
      "stateMutability": "view",
      "type": "function"
    },
    {
      "inputs": [
        {
          "internalType": "address",
          "name": "spender",
          "type": "address"
        },
        {
          "internalType": "uint256",
          "name": "value",
          "type": "uint256"
        }
      ],
      "name": "approve",
      "outputs": [
        {
          "internalType": "bool",
          "name": "",
          "type": "bool"
        }
      ],
      "stateMutability": "nonpayable",
      "type": "function"
    },
    {
      "inputs": [
        {
          "internalType": "address",
          "name": "account",
          "type": "address"
        }
      ],
      "name": "balanceOf",
      "outputs": [
        {
          "internalType": "uint256",
          "name": "",
          "type": "uint256"
        }
      ],
      "stateMutability": "view",
      "type": "function"
    },
    {
      "inputs": [],
      "name": "cap",
      "outputs": [
        {
          "internalType": "uint256",
          "name": "",
          "type": "uint256"
        }
      ],
      "stateMutability": "view",
      "type": "function"
    },
    {
      "inputs": [],
      "name": "decimals",
      "outputs": [
        {
          "internalType": "uint8",
          "name": "",
          "type": "uint8"
        }
      ],
      "stateMutability": "view",
      "type": "function"
    },
    {
      "inputs": [
        {
          "internalType": "uint256",
          "name": "amount",
          "type": "uint256"
        }
      ],
      "name": "faucet",
      "outputs": [],
      "stateMutability": "nonpayable",
      "type": "function"
    },
    {
      "inputs": [],
      "name": "name",
      "outputs": [
        {
          "internalType": "string",
          "name": "",
          "type": "string"
        }
      ],
      "stateMutability": "view",
      "type": "function"
    },
    {
      "inputs": [
        {
          "internalType": "address[]",
          "name": "users",
          "type": "address[]"
        },
        {
          "internalType": "uint256[]",
          "name": "amounts",
          "type": "uint256[]"
        }
      ],
      "name": "sendMultipleRecipient",
      "outputs": [],
      "stateMutability": "nonpayable",
      "type": "function"
    },
    {
      "inputs": [
        {
          "internalType": "address",
          "name": "user",
          "type": "address"
        },
        {
          "internalType": "uint256",
          "name": "amount",
          "type": "uint256"
        }
      ],
      "name": "setWhitelist",
      "outputs": [],
      "stateMutability": "nonpayable",
      "type": "function"
    },
    {
      "inputs": [],
      "name": "symbol",
      "outputs": [
        {
          "internalType": "string",
          "name": "",
          "type": "string"
        }
      ],
      "stateMutability": "view",
      "type": "function"
    },
    {
      "inputs": [],
      "name": "totalSupply",
      "outputs": [
        {
          "internalType": "uint256",
          "name": "",
          "type": "uint256"
        }
      ],
      "stateMutability": "view",
      "type": "function"
    },
    {
      "inputs": [
        {
          "internalType": "address",
          "name": "to",
          "type": "address"
        },
        {
          "internalType": "uint256",
          "name": "value",
          "type": "uint256"
        }
      ],
      "name": "transfer",
      "outputs": [
        {
          "internalType": "bool",
          "name": "",
          "type": "bool"
        }
      ],
      "stateMutability": "nonpayable",
      "type": "function"
    },
    {
      "inputs": [
        {
          "internalType": "address",
          "name": "newAdmin",
          "type": "address"
        }
      ],
      "name": "transferAdminOwnership",
      "outputs": [],
      "stateMutability": "nonpayable",
      "type": "function"
    },
    {
      "inputs": [
        {
          "internalType": "address",
          "name": "from",
          "type": "address"
        },
        {
          "internalType": "address",
          "name": "to",
          "type": "address"
        },
        {
          "internalType": "uint256",
          "name": "value",
          "type": "uint256"
        }
      ],
      "name": "transferFrom",
      "outputs": [
        {
          "internalType": "bool",
          "name": "",
          "type": "bool"
        }
      ],
      "stateMutability": "nonpayable",
      "type": "function"
    },
    {
      "inputs": [
        {
          "internalType": "address",
          "name": "",
          "type": "address"
        }
      ],
      "name": "whitelist",
      "outputs": [
        {
          "internalType": "uint256",
          "name": "",
          "type": "uint256"
        }
      ],
      "stateMutability": "view",
      "type": "function"
    }
  ],
  "bytecode": "0x60a06040523480156200001157600080fd5b506b033b2e3c9fd0803ce80000006040518060400160405280600681526020017f53656979616a00000000000000000000000000000000000000000000000000008152506040518060400160405280600381526020017f534549000000000000000000000000000000000000000000000000000000000081525081600390816200009c9190620003c4565b508060049081620000ae9190620003c4565b50505060008103620000fa5760006040517f392e1e27000000000000000000000000000000000000000000000000000000008152600401620000f19190620004ee565b60405180910390fd5b80608081815250505033600560006101000a81548173ffffffffffffffffffffffffffffffffffffffff021916908373ffffffffffffffffffffffffffffffffffffffff1602179055506200050b565b600081519050919050565b7f4e487b7100000000000000000000000000000000000000000000000000000000600052604160045260246000fd5b7f4e487b7100000000000000000000000000000000000000000000000000000000600052602260045260246000fd5b60006002820490506001821680620001cc57607f821691505b602082108103620001e257620001e162000184565b5b50919050565b60008190508160005260206000209050919050565b60006020601f8301049050919050565b600082821b905092915050565b6000600883026200024c7fffffffffffffffffffffffffffffffffffffffffffffffffffffffffffffffff826200020d565b6200025886836200020d565b95508019841693508086168417925050509392505050565b6000819050919050565b6000819050919050565b6000620002a56200029f620002998462000270565b6200027a565b62000270565b9050919050565b6000819050919050565b620002c18362000284565b620002d9620002d082620002ac565b8484546200021a565b825550505050565b600090565b620002f0620002e1565b620002fd818484620002b6565b505050565b5b81811015620003255762000319600082620002e6565b60018101905062000303565b5050565b601f82111562000374576200033e81620001e8565b6200034984620001fd565b8101602085101562000359578190505b620003716200036885620001fd565b83018262000302565b50505b505050565b600082821c905092915050565b6000620003996000198460080262000379565b1980831691505092915050565b6000620003b4838362000386565b9150826002028217905092915050565b620003cf826200014a565b67ffffffffffffffff811115620003eb57620003ea62000155565b5b620003f78254620001b3565b6200040482828562000329565b600060209050601f8311600181146200043c576000841562000427578287015190505b620004338582620003a6565b865550620004a3565b601f1984166200044c86620001e8565b60005b8281101562000476578489015182556001820191506020850194506020810190506200044f565b8683101562000496578489015162000492601f89168262000386565b8355505b6001600288020188555050505b505050505050565b6000819050919050565b6000620004d6620004d0620004ca84620004ab565b6200027a565b62000270565b9050919050565b620004e881620004b5565b82525050565b6000602082019050620005056000830184620004dd565b92915050565b6080516119a962000527600039600061068f01526119a96000f3fe608060405234801561001057600080fd5b50600436106101005760003560e01c80635791589711610097578063a9059cbb11610066578063a9059cbb146102af578063d49487c9146102df578063dd62ed3e146102fb578063f851a4401461032b57610100565b8063579158971461021557806370a082311461023157806395d89b41146102615780639b19251a1461027f57610100565b806318160ddd116100d357806318160ddd1461018b57806323b872dd146101a9578063313ce567146101d9578063355274ea146101f757610100565b806306fdde031461010557806308a80ff514610123578063095ea7b31461013f5780631302d03a1461016f575b600080fd5b61010d610349565b60405161011a9190611253565b60405180910390f35b61013d600480360381019061013891906112dd565b6103db565b005b61015960048036038101906101549190611340565b6104af565b604051610166919061139b565b60405180910390f35b61018960048036038101906101849190611340565b6104d2565b005b610193610649565b6040516101a091906113c5565b60405180910390f35b6101c360048036038101906101be91906113e0565b610653565b6040516101d0919061139b565b60405180910390f35b6101e1610682565b6040516101ee919061144f565b60405180910390f35b6101ff61068b565b60405161020c91906113c5565b60405180910390f35b61022f600480360381019061022a919061146a565b6106b3565b005b61024b600480360381019061024691906112dd565b6107e6565b60405161025891906113c5565b60405180910390f35b61026961082e565b6040516102769190611253565b60405180910390f35b610299600480360381019061029491906112dd565b6108c0565b6040516102a691906113c5565b60405180910390f35b6102c960048036038101906102c49190611340565b6108d8565b6040516102d6919061139b565b60405180910390f35b6102f960048036038101906102f49190611552565b6108fb565b005b610315600480360381019061031091906115d3565b610a40565b60405161032291906113c5565b60405180910390f35b610333610ac7565b6040516103409190611622565b60405180910390f35b6060600380546103589061166c565b80601f01602080910402602001604051908101604052809291908181526020018280546103849061166c565b80156103d15780601f106103a6576101008083540402835291602001916103d1565b820191906000526020600020905b8154815290600101906020018083116103b457829003601f168201915b5050505050905090565b600560009054906101000a900473ffffffffffffffffffffffffffffffffffffffff1673ffffffffffffffffffffffffffffffffffffffff163373ffffffffffffffffffffffffffffffffffffffff161461046b576040517f08c379a0000000000000000000000000000000000000000000000000000000008152600401610462906116e9565b60405180910390fd5b80600560006101000a81548173ffffffffffffffffffffffffffffffffffffffff021916908373ffffffffffffffffffffffffffffffffffffffff16021790555050565b6000806104ba610aed565b90506104c7818585610af5565b600191505092915050565b600560009054906101000a900473ffffffffffffffffffffffffffffffffffffffff1673ffffffffffffffffffffffffffffffffffffffff163373ffffffffffffffffffffffffffffffffffffffff1614610562576040517f08c379a0000000000000000000000000000000000000000000000000000000008152600401610559906116e9565b60405180910390fd5b80600660008473ffffffffffffffffffffffffffffffffffffffff1673ffffffffffffffffffffffffffffffffffffffff16815260200190815260200160002060008282546105b19190611738565b925050819055508173ffffffffffffffffffffffffffffffffffffffff167f636953c95a1763898827482397dd06377dfa68588adbc113376847a925f64fbb600660008573ffffffffffffffffffffffffffffffffffffffff1673ffffffffffffffffffffffffffffffffffffffff1681526020019081526020016000205460405161063d91906113c5565b60405180910390a25050565b6000600254905090565b60008061065e610aed565b905061066b858285610b07565b610676858585610b9b565b60019150509392505050565b60006012905090565b60007f0000000000000000000000000000000000000000000000000000000000000000905090565b80600660003373ffffffffffffffffffffffffffffffffffffffff1673ffffffffffffffffffffffffffffffffffffffff168152602001908152602001600020541015610735576040517f08c379a000000000000000000000000000000000000000000000000000000000815260040161072c906117b8565b60405180910390fd5b80600660003373ffffffffffffffffffffffffffffffffffffffff1673ffffffffffffffffffffffffffffffffffffffff168152602001908152602001600020600082825461078491906117d8565b925050819055506107953382610c8f565b3373ffffffffffffffffffffffffffffffffffffffff167f1c5347d1e37925b93058518c26d7daabe45f0a3227e8d058aaf3682960eb2b94826040516107db91906113c5565b60405180910390a250565b60008060008373ffffffffffffffffffffffffffffffffffffffff1673ffffffffffffffffffffffffffffffffffffffff168152602001908152602001600020549050919050565b60606004805461083d9061166c565b80601f01602080910402602001604051908101604052809291908181526020018280546108699061166c565b80156108b65780601f1061088b576101008083540402835291602001916108b6565b820191906000526020600020905b81548152906001019060200180831161089957829003601f168201915b5050505050905090565b60066020528060005260406000206000915090505481565b6000806108e3610aed565b90506108f0818585610b9b565b600191505092915050565b818190508484905014610943576040517f08c379a000000000000000000000000000000000000000000000000000000000815260040161093a90611858565b60405180910390fd5b6000805b858590508110156109865783838281811061096557610964611878565b5b90506020020135826109779190611738565b91508080600101915050610947565b50610990336107e6565b8111156109d2576040517f08c379a00000000000000000000000000000000000000000000000000000000081526004016109c9906118f3565b60405180910390fd5b60005b85859050811015610a3857610a2b338787848181106109f7576109f6611878565b5b9050602002016020810190610a0c91906112dd565b868685818110610a1f57610a1e611878565b5b90506020020135610b9b565b80806001019150506109d5565b505050505050565b6000600160008473ffffffffffffffffffffffffffffffffffffffff1673ffffffffffffffffffffffffffffffffffffffff16815260200190815260200160002060008373ffffffffffffffffffffffffffffffffffffffff1673ffffffffffffffffffffffffffffffffffffffff16815260200190815260200160002054905092915050565b600560009054906101000a900473ffffffffffffffffffffffffffffffffffffffff1681565b600033905090565b610b028383836001610d11565b505050565b6000610b138484610a40565b90507fffffffffffffffffffffffffffffffffffffffffffffffffffffffffffffffff8114610b955781811015610b85578281836040517ffb8f41b2000000000000000000000000000000000000000000000000000000008152600401610b7c93929190611913565b60405180910390fd5b610b9484848484036000610d11565b5b50505050565b600073ffffffffffffffffffffffffffffffffffffffff168373ffffffffffffffffffffffffffffffffffffffff1603610c0d5760006040517f96c6fd1e000000000000000000000000000000000000000000000000000000008152600401610c049190611622565b60405180910390fd5b600073ffffffffffffffffffffffffffffffffffffffff168273ffffffffffffffffffffffffffffffffffffffff1603610c7f5760006040517fec442f05000000000000000000000000000000000000000000000000000000008152600401610c769190611622565b60405180910390fd5b610c8a838383610ee8565b505050565b600073ffffffffffffffffffffffffffffffffffffffff168273ffffffffffffffffffffffffffffffffffffffff1603610d015760006040517fec442f05000000000000000000000000000000000000000000000000000000008152600401610cf89190611622565b60405180910390fd5b610d0d60008383610ee8565b5050565b600073ffffffffffffffffffffffffffffffffffffffff168473ffffffffffffffffffffffffffffffffffffffff1603610d835760006040517fe602df05000000000000000000000000000000000000000000000000000000008152600401610d7a9190611622565b60405180910390fd5b600073ffffffffffffffffffffffffffffffffffffffff168373ffffffffffffffffffffffffffffffffffffffff1603610df55760006040517f94280d62000000000000000000000000000000000000000000000000000000008152600401610dec9190611622565b60405180910390fd5b81600160008673ffffffffffffffffffffffffffffffffffffffff1673ffffffffffffffffffffffffffffffffffffffff16815260200190815260200160002060008573ffffffffffffffffffffffffffffffffffffffff1673ffffffffffffffffffffffffffffffffffffffff168152602001908152602001600020819055508015610ee2578273ffffffffffffffffffffffffffffffffffffffff168473ffffffffffffffffffffffffffffffffffffffff167f8c5be1e5ebec7d5bd14f71427d1e84f3dd0314c0f7b2291e5b200ac8c7c3b92584604051610ed991906113c5565b60405180910390a35b50505050565b610ef3838383610ef8565b505050565b610f03838383610f9e565b600073ffffffffffffffffffffffffffffffffffffffff168373ffffffffffffffffffffffffffffffffffffffff1603610f99576000610f4161068b565b90506000610f4d610649565b905081811115610f965780826040517f9e79f854000000000000000000000000000000000000000000000000000000008152600401610f8d92919061194a565b60405180910390fd5b50505b505050565b600073ffffffffffffffffffffffffffffffffffffffff168373ffffffffffffffffffffffffffffffffffffffff1603610ff0578060026000828254610fe49190611738565b925050819055506110c3565b60008060008573ffffffffffffffffffffffffffffffffffffffff1673ffffffffffffffffffffffffffffffffffffffff1681526020019081526020016000205490508181101561107c578381836040517fe450d38c00000000000000000000000000000000000000000000000000000000815260040161107393929190611913565b60405180910390fd5b8181036000808673ffffffffffffffffffffffffffffffffffffffff1673ffffffffffffffffffffffffffffffffffffffff16815260200190815260200160002081905550505b600073ffffffffffffffffffffffffffffffffffffffff168273ffffffffffffffffffffffffffffffffffffffff160361110c5780600260008282540392505081905550611159565b806000808473ffffffffffffffffffffffffffffffffffffffff1673ffffffffffffffffffffffffffffffffffffffff168152602001908152602001600020600082825401925050819055505b8173ffffffffffffffffffffffffffffffffffffffff168373ffffffffffffffffffffffffffffffffffffffff167fddf252ad1be2c89b69c2b068fc378daa952ba7f163c4a11628f55a4df523b3ef836040516111b691906113c5565b60405180910390a3505050565b600081519050919050565b600082825260208201905092915050565b60005b838110156111fd5780820151818401526020810190506111e2565b60008484015250505050565b6000601f19601f8301169050919050565b6000611225826111c3565b61122f81856111ce565b935061123f8185602086016111df565b61124881611209565b840191505092915050565b6000602082019050818103600083015261126d818461121a565b905092915050565b600080fd5b600080fd5b600073ffffffffffffffffffffffffffffffffffffffff82169050919050565b60006112aa8261127f565b9050919050565b6112ba8161129f565b81146112c557600080fd5b50565b6000813590506112d7816112b1565b92915050565b6000602082840312156112f3576112f2611275565b5b6000611301848285016112c8565b91505092915050565b6000819050919050565b61131d8161130a565b811461132857600080fd5b50565b60008135905061133a81611314565b92915050565b6000806040838503121561135757611356611275565b5b6000611365858286016112c8565b92505060206113768582860161132b565b9150509250929050565b60008115159050919050565b61139581611380565b82525050565b60006020820190506113b0600083018461138c565b92915050565b6113bf8161130a565b82525050565b60006020820190506113da60008301846113b6565b92915050565b6000806000606084860312156113f9576113f8611275565b5b6000611407868287016112c8565b9350506020611418868287016112c8565b92505060406114298682870161132b565b9150509250925092565b600060ff82169050919050565b61144981611433565b82525050565b60006020820190506114646000830184611440565b92915050565b6000602082840312156114805761147f611275565b5b600061148e8482850161132b565b91505092915050565b600080fd5b600080fd5b600080fd5b60008083601f8401126114bc576114bb611497565b5b8235905067ffffffffffffffff8111156114d9576114d861149c565b5b6020830191508360208202830111156114f5576114f46114a1565b5b9250929050565b60008083601f84011261151257611511611497565b5b8235905067ffffffffffffffff81111561152f5761152e61149c565b5b60208301915083602082028301111561154b5761154a6114a1565b5b9250929050565b6000806000806040858703121561156c5761156b611275565b5b600085013567ffffffffffffffff81111561158a5761158961127a565b5b611596878288016114a6565b9450945050602085013567ffffffffffffffff8111156115b9576115b861127a565b5b6115c5878288016114fc565b925092505092959194509250565b600080604083850312156115ea576115e9611275565b5b60006115f8858286016112c8565b9250506020611609858286016112c8565b9150509250929050565b61161c8161129f565b82525050565b60006020820190506116376000830184611613565b92915050565b7f4e487b7100000000000000000000000000000000000000000000000000000000600052602260045260246000fd5b6000600282049050600182168061168457607f821691505b6020821081036116975761169661163d565b5b50919050565b7f4f6e6c792041646d696e00000000000000000000000000000000000000000000600082015250565b60006116d3600a836111ce565b91506116de8261169d565b602082019050919050565b60006020820190508181036000830152611702816116c6565b9050919050565b7f4e487b7100000000000000000000000000000000000000000000000000000000600052601160045260246000fd5b60006117438261130a565b915061174e8361130a565b925082820190508082111561176657611765611709565b5b92915050565b7f4578636565640000000000000000000000000000000000000000000000000000600082015250565b60006117a26006836111ce565b91506117ad8261176c565b602082019050919050565b600060208201905081810360008301526117d181611795565b9050919050565b60006117e38261130a565b91506117ee8361130a565b925082820390508181111561180657611805611709565b5b92915050565b7f496e76616c6964206c656e677468000000000000000000000000000000000000600082015250565b6000611842600e836111ce565b915061184d8261180c565b602082019050919050565b6000602082019050818103600083015261187181611835565b9050919050565b7f4e487b7100000000000000000000000000000000000000000000000000000000600052603260045260246000fd5b7f496e73756666696369656e742062616c616e6365000000000000000000000000600082015250565b60006118dd6014836111ce565b91506118e8826118a7565b602082019050919050565b6000602082019050818103600083015261190c816118d0565b9050919050565b60006060820190506119286000830186611613565b61193560208301856113b6565b61194260408301846113b6565b949350505050565b600060408201905061195f60008301856113b6565b61196c60208301846113b6565b939250505056fea26469706673582212201c3819af85d3af8038fd5ef8899de4a070598d68fe4f41073664db4cb80b0e2264736f6c63430008180033",
  "linkReferences": {},
  "deployedLinkReferences": {}
}